{
	"data": {
		"bytecode": {
			"linkReferences": {},
			"object": "6080604052348015600e575f80fd5b506106938061001c5f395ff3fe608060405234801561000f575f80fd5b506004361061003f575f3560e01c80634d6249d1146100435780636d032a311461004d578063a78add2f1461006b575b5f80fd5b61004b61009b565b005b610055610135565b60405161006291906101fd565b60405180910390f35b61008560048036038101906100809190610244565b610140565b60405161009291906102df565b60405180910390f35b5f8060018154018082558091505060019003905f5260205f20015f6040518060400160405280600481526020017f6675636b00000000000000000000000000000000000000000000000000000000815250909190915090816100fd9190610526565b507f54a3c10c268166ae4a09a1bf6a1a52ff6ffc032eb89308ad452ce1da6a9952f860405161012b9061063f565b60405180910390a1565b5f8080549050905090565b5f818154811061014e575f80fd5b905f5260205f20015f91509050805461016690610359565b80601f016020809104026020016040519081016040528092919081815260200182805461019290610359565b80156101dd5780601f106101b4576101008083540402835291602001916101dd565b820191905f5260205f20905b8154815290600101906020018083116101c057829003601f168201915b505050505081565b5f819050919050565b6101f7816101e5565b82525050565b5f6020820190506102105f8301846101ee565b92915050565b5f80fd5b610223816101e5565b811461022d575f80fd5b50565b5f8135905061023e8161021a565b92915050565b5f6020828403121561025957610258610216565b5b5f61026684828501610230565b91505092915050565b5f81519050919050565b5f82825260208201905092915050565b8281835e5f83830152505050565b5f601f19601f8301169050919050565b5f6102b18261026f565b6102bb8185610279565b93506102cb818560208601610289565b6102d481610297565b840191505092915050565b5f6020820190508181035f8301526102f781846102a7565b905092915050565b7f4e487b71000000000000000000000000000000000000000000000000000000005f52604160045260245ffd5b7f4e487b71000000000000000000000000000000000000000000000000000000005f52602260045260245ffd5b5f600282049050600182168061037057607f821691505b6020821081036103835761038261032c565b5b50919050565b5f819050815f5260205f209050919050565b5f6020601f8301049050919050565b5f82821b905092915050565b5f600883026103e57fffffffffffffffffffffffffffffffffffffffffffffffffffffffffffffffff826103aa565b6103ef86836103aa565b95508019841693508086168417925050509392505050565b5f819050919050565b5f61042a610425610420846101e5565b610407565b6101e5565b9050919050565b5f819050919050565b61044383610410565b61045761044f82610431565b8484546103b6565b825550505050565b5f90565b61046b61045f565b61047681848461043a565b505050565b5b818110156104995761048e5f82610463565b60018101905061047c565b5050565b601f8211156104de576104af81610389565b6104b88461039b565b810160208510156104c7578190505b6104db6104d38561039b565b83018261047b565b50505b505050565b5f82821c905092915050565b5f6104fe5f19846008026104e3565b1980831691505092915050565b5f61051683836104ef565b9150826002028217905092915050565b61052f8261026f565b67ffffffffffffffff811115610548576105476102ff565b5b6105528254610359565b61055d82828561049d565b5f60209050601f83116001811461058e575f841561057c578287015190505b610586858261050b565b8655506105ed565b601f19841661059c86610389565b5f5b828110156105c35784890151825560018201915060208501945060208101905061059e565b868310156105e057848901516105dc601f8916826104ef565b8355505b6001600288020188555050505b505050505050565b7f6675636b000000000000000000000000000000000000000000000000000000005f82015250565b5f610629600483610279565b9150610634826105f5565b602082019050919050565b5f6020820190508181035f8301526106568161061d565b905091905056fea264697066735822122002d72fb63d231eeb0849969b954aed157347b362442d8a3f5a47f2ae0ac2a1df64736f6c634300081a0033",
			"opcodes": "PUSH1 0x80 PUSH1 0x40 MSTORE CALLVALUE DUP1 ISZERO PUSH1 0xE JUMPI PUSH0 DUP1 REVERT JUMPDEST POP PUSH2 0x693 DUP1 PUSH2 0x1C PUSH0 CODECOPY PUSH0 RETURN INVALID PUSH1 0x80 PUSH1 0x40 MSTORE CALLVALUE DUP1 ISZERO PUSH2 0xF JUMPI PUSH0 DUP1 REVERT JUMPDEST POP PUSH1 0x4 CALLDATASIZE LT PUSH2 0x3F JUMPI PUSH0 CALLDATALOAD PUSH1 0xE0 SHR DUP1 PUSH4 0x4D6249D1 EQ PUSH2 0x43 JUMPI DUP1 PUSH4 0x6D032A31 EQ PUSH2 0x4D JUMPI DUP1 PUSH4 0xA78ADD2F EQ PUSH2 0x6B JUMPI JUMPDEST PUSH0 DUP1 REVERT JUMPDEST PUSH2 0x4B PUSH2 0x9B JUMP JUMPDEST STOP JUMPDEST PUSH2 0x55 PUSH2 0x135 JUMP JUMPDEST PUSH1 0x40 MLOAD PUSH2 0x62 SWAP2 SWAP1 PUSH2 0x1FD JUMP JUMPDEST PUSH1 0x40 MLOAD DUP1 SWAP2 SUB SWAP1 RETURN JUMPDEST PUSH2 0x85 PUSH1 0x4 DUP1 CALLDATASIZE SUB DUP2 ADD SWAP1 PUSH2 0x80 SWAP2 SWAP1 PUSH2 0x244 JUMP JUMPDEST PUSH2 0x140 JUMP JUMPDEST PUSH1 0x40 MLOAD PUSH2 0x92 SWAP2 SWAP1 PUSH2 0x2DF JUMP JUMPDEST PUSH1 0x40 MLOAD DUP1 SWAP2 SUB SWAP1 RETURN JUMPDEST PUSH0 DUP1 PUSH1 0x1 DUP2 SLOAD ADD DUP1 DUP3 SSTORE DUP1 SWAP2 POP POP PUSH1 0x1 SWAP1 SUB SWAP1 PUSH0 MSTORE PUSH1 0x20 PUSH0 KECCAK256 ADD PUSH0 PUSH1 0x40 MLOAD DUP1 PUSH1 0x40 ADD PUSH1 0x40 MSTORE DUP1 PUSH1 0x4 DUP2 MSTORE PUSH1 0x20 ADD PUSH32 0x6675636B00000000000000000000000000000000000000000000000000000000 DUP2 MSTORE POP SWAP1 SWAP2 SWAP1 SWAP2 POP SWAP1 DUP2 PUSH2 0xFD SWAP2 SWAP1 PUSH2 0x526 JUMP JUMPDEST POP PUSH32 0x54A3C10C268166AE4A09A1BF6A1A52FF6FFC032EB89308AD452CE1DA6A9952F8 PUSH1 0x40 MLOAD PUSH2 0x12B SWAP1 PUSH2 0x63F JUMP JUMPDEST PUSH1 0x40 MLOAD DUP1 SWAP2 SUB SWAP1 LOG1 JUMP JUMPDEST PUSH0 DUP1 DUP1 SLOAD SWAP1 POP SWAP1 POP SWAP1 JUMP JUMPDEST PUSH0 DUP2 DUP2 SLOAD DUP2 LT PUSH2 0x14E JUMPI PUSH0 DUP1 REVERT JUMPDEST SWAP1 PUSH0 MSTORE PUSH1 0x20 PUSH0 KECCAK256 ADD PUSH0 SWAP2 POP SWAP1 POP DUP1 SLOAD PUSH2 0x166 SWAP1 PUSH2 0x359 JUMP JUMPDEST DUP1 PUSH1 0x1F ADD PUSH1 0x20 DUP1 SWAP2 DIV MUL PUSH1 0x20 ADD PUSH1 0x40 MLOAD SWAP1 DUP2 ADD PUSH1 0x40 MSTORE DUP1 SWAP3 SWAP2 SWAP1 DUP2 DUP2 MSTORE PUSH1 0x20 ADD DUP3 DUP1 SLOAD PUSH2 0x192 SWAP1 PUSH2 0x359 JUMP JUMPDEST DUP1 ISZERO PUSH2 0x1DD JUMPI DUP1 PUSH1 0x1F LT PUSH2 0x1B4 JUMPI PUSH2 0x100 DUP1 DUP4 SLOAD DIV MUL DUP4 MSTORE SWAP2 PUSH1 0x20 ADD SWAP2 PUSH2 0x1DD JUMP JUMPDEST DUP3 ADD SWAP2 SWAP1 PUSH0 MSTORE PUSH1 0x20 PUSH0 KECCAK256 SWAP1 JUMPDEST DUP2 SLOAD DUP2 MSTORE SWAP1 PUSH1 0x1 ADD SWAP1 PUSH1 0x20 ADD DUP1 DUP4 GT PUSH2 0x1C0 JUMPI DUP3 SWAP1 SUB PUSH1 0x1F AND DUP3 ADD SWAP2 JUMPDEST POP POP POP POP POP DUP2 JUMP JUMPDEST PUSH0 DUP2 SWAP1 POP SWAP2 SWAP1 POP JUMP JUMPDEST PUSH2 0x1F7 DUP2 PUSH2 0x1E5 JUMP JUMPDEST DUP3 MSTORE POP POP JUMP JUMPDEST PUSH0 PUSH1 0x20 DUP3 ADD SWAP1 POP PUSH2 0x210 PUSH0 DUP4 ADD DUP5 PUSH2 0x1EE JUMP JUMPDEST SWAP3 SWAP2 POP POP JUMP JUMPDEST PUSH0 DUP1 REVERT JUMPDEST PUSH2 0x223 DUP2 PUSH2 0x1E5 JUMP JUMPDEST DUP2 EQ PUSH2 0x22D JUMPI PUSH0 DUP1 REVERT JUMPDEST POP JUMP JUMPDEST PUSH0 DUP2 CALLDATALOAD SWAP1 POP PUSH2 0x23E DUP2 PUSH2 0x21A JUMP JUMPDEST SWAP3 SWAP2 POP POP JUMP JUMPDEST PUSH0 PUSH1 0x20 DUP3 DUP5 SUB SLT ISZERO PUSH2 0x259 JUMPI PUSH2 0x258 PUSH2 0x216 JUMP JUMPDEST JUMPDEST PUSH0 PUSH2 0x266 DUP5 DUP3 DUP6 ADD PUSH2 0x230 JUMP JUMPDEST SWAP2 POP POP SWAP3 SWAP2 POP POP JUMP JUMPDEST PUSH0 DUP2 MLOAD SWAP1 POP SWAP2 SWAP1 POP JUMP JUMPDEST PUSH0 DUP3 DUP3 MSTORE PUSH1 0x20 DUP3 ADD SWAP1 POP SWAP3 SWAP2 POP POP JUMP JUMPDEST DUP3 DUP2 DUP4 MCOPY PUSH0 DUP4 DUP4 ADD MSTORE POP POP POP JUMP JUMPDEST PUSH0 PUSH1 0x1F NOT PUSH1 0x1F DUP4 ADD AND SWAP1 POP SWAP2 SWAP1 POP JUMP JUMPDEST PUSH0 PUSH2 0x2B1 DUP3 PUSH2 0x26F JUMP JUMPDEST PUSH2 0x2BB DUP2 DUP6 PUSH2 0x279 JUMP JUMPDEST SWAP4 POP PUSH2 0x2CB DUP2 DUP6 PUSH1 0x20 DUP7 ADD PUSH2 0x289 JUMP JUMPDEST PUSH2 0x2D4 DUP2 PUSH2 0x297 JUMP JUMPDEST DUP5 ADD SWAP2 POP POP SWAP3 SWAP2 POP POP JUMP JUMPDEST PUSH0 PUSH1 0x20 DUP3 ADD SWAP1 POP DUP2 DUP2 SUB PUSH0 DUP4 ADD MSTORE PUSH2 0x2F7 DUP2 DUP5 PUSH2 0x2A7 JUMP JUMPDEST SWAP1 POP SWAP3 SWAP2 POP POP JUMP JUMPDEST PUSH32 0x4E487B7100000000000000000000000000000000000000000000000000000000 PUSH0 MSTORE PUSH1 0x41 PUSH1 0x4 MSTORE PUSH1 0x24 PUSH0 REVERT JUMPDEST PUSH32 0x4E487B7100000000000000000000000000000000000000000000000000000000 PUSH0 MSTORE PUSH1 0x22 PUSH1 0x4 MSTORE PUSH1 0x24 PUSH0 REVERT JUMPDEST PUSH0 PUSH1 0x2 DUP3 DIV SWAP1 POP PUSH1 0x1 DUP3 AND DUP1 PUSH2 0x370 JUMPI PUSH1 0x7F DUP3 AND SWAP2 POP JUMPDEST PUSH1 0x20 DUP3 LT DUP2 SUB PUSH2 0x383 JUMPI PUSH2 0x382 PUSH2 0x32C JUMP JUMPDEST JUMPDEST POP SWAP2 SWAP1 POP JUMP JUMPDEST PUSH0 DUP2 SWAP1 POP DUP2 PUSH0 MSTORE PUSH1 0x20 PUSH0 KECCAK256 SWAP1 POP SWAP2 SWAP1 POP JUMP JUMPDEST PUSH0 PUSH1 0x20 PUSH1 0x1F DUP4 ADD DIV SWAP1 POP SWAP2 SWAP1 POP JUMP JUMPDEST PUSH0 DUP3 DUP3 SHL SWAP1 POP SWAP3 SWAP2 POP POP JUMP JUMPDEST PUSH0 PUSH1 0x8 DUP4 MUL PUSH2 0x3E5 PUSH32 0xFFFFFFFFFFFFFFFFFFFFFFFFFFFFFFFFFFFFFFFFFFFFFFFFFFFFFFFFFFFFFFFF DUP3 PUSH2 0x3AA JUMP JUMPDEST PUSH2 0x3EF DUP7 DUP4 PUSH2 0x3AA JUMP JUMPDEST SWAP6 POP DUP1 NOT DUP5 AND SWAP4 POP DUP1 DUP7 AND DUP5 OR SWAP3 POP POP POP SWAP4 SWAP3 POP POP POP JUMP JUMPDEST PUSH0 DUP2 SWAP1 POP SWAP2 SWAP1 POP JUMP JUMPDEST PUSH0 PUSH2 0x42A PUSH2 0x425 PUSH2 0x420 DUP5 PUSH2 0x1E5 JUMP JUMPDEST PUSH2 0x407 JUMP JUMPDEST PUSH2 0x1E5 JUMP JUMPDEST SWAP1 POP SWAP2 SWAP1 POP JUMP JUMPDEST PUSH0 DUP2 SWAP1 POP SWAP2 SWAP1 POP JUMP JUMPDEST PUSH2 0x443 DUP4 PUSH2 0x410 JUMP JUMPDEST PUSH2 0x457 PUSH2 0x44F DUP3 PUSH2 0x431 JUMP JUMPDEST DUP5 DUP5 SLOAD PUSH2 0x3B6 JUMP JUMPDEST DUP3 SSTORE POP POP POP POP JUMP JUMPDEST PUSH0 SWAP1 JUMP JUMPDEST PUSH2 0x46B PUSH2 0x45F JUMP JUMPDEST PUSH2 0x476 DUP2 DUP5 DUP5 PUSH2 0x43A JUMP JUMPDEST POP POP POP JUMP JUMPDEST JUMPDEST DUP2 DUP2 LT ISZERO PUSH2 0x499 JUMPI PUSH2 0x48E PUSH0 DUP3 PUSH2 0x463 JUMP JUMPDEST PUSH1 0x1 DUP2 ADD SWAP1 POP PUSH2 0x47C JUMP JUMPDEST POP POP JUMP JUMPDEST PUSH1 0x1F DUP3 GT ISZERO PUSH2 0x4DE JUMPI PUSH2 0x4AF DUP2 PUSH2 0x389 JUMP JUMPDEST PUSH2 0x4B8 DUP5 PUSH2 0x39B JUMP JUMPDEST DUP2 ADD PUSH1 0x20 DUP6 LT ISZERO PUSH2 0x4C7 JUMPI DUP2 SWAP1 POP JUMPDEST PUSH2 0x4DB PUSH2 0x4D3 DUP6 PUSH2 0x39B JUMP JUMPDEST DUP4 ADD DUP3 PUSH2 0x47B JUMP JUMPDEST POP POP JUMPDEST POP POP POP JUMP JUMPDEST PUSH0 DUP3 DUP3 SHR SWAP1 POP SWAP3 SWAP2 POP POP JUMP JUMPDEST PUSH0 PUSH2 0x4FE PUSH0 NOT DUP5 PUSH1 0x8 MUL PUSH2 0x4E3 JUMP JUMPDEST NOT DUP1 DUP4 AND SWAP2 POP POP SWAP3 SWAP2 POP POP JUMP JUMPDEST PUSH0 PUSH2 0x516 DUP4 DUP4 PUSH2 0x4EF JUMP JUMPDEST SWAP2 POP DUP3 PUSH1 0x2 MUL DUP3 OR SWAP1 POP SWAP3 SWAP2 POP POP JUMP JUMPDEST PUSH2 0x52F DUP3 PUSH2 0x26F JUMP JUMPDEST PUSH8 0xFFFFFFFFFFFFFFFF DUP2 GT ISZERO PUSH2 0x548 JUMPI PUSH2 0x547 PUSH2 0x2FF JUMP JUMPDEST JUMPDEST PUSH2 0x552 DUP3 SLOAD PUSH2 0x359 JUMP JUMPDEST PUSH2 0x55D DUP3 DUP3 DUP6 PUSH2 0x49D JUMP JUMPDEST PUSH0 PUSH1 0x20 SWAP1 POP PUSH1 0x1F DUP4 GT PUSH1 0x1 DUP2 EQ PUSH2 0x58E JUMPI PUSH0 DUP5 ISZERO PUSH2 0x57C JUMPI DUP3 DUP8 ADD MLOAD SWAP1 POP JUMPDEST PUSH2 0x586 DUP6 DUP3 PUSH2 0x50B JUMP JUMPDEST DUP7 SSTORE POP PUSH2 0x5ED JUMP JUMPDEST PUSH1 0x1F NOT DUP5 AND PUSH2 0x59C DUP7 PUSH2 0x389 JUMP JUMPDEST PUSH0 JUMPDEST DUP3 DUP2 LT ISZERO PUSH2 0x5C3 JUMPI DUP5 DUP10 ADD MLOAD DUP3 SSTORE PUSH1 0x1 DUP3 ADD SWAP2 POP PUSH1 0x20 DUP6 ADD SWAP5 POP PUSH1 0x20 DUP2 ADD SWAP1 POP PUSH2 0x59E JUMP JUMPDEST DUP7 DUP4 LT ISZERO PUSH2 0x5E0 JUMPI DUP5 DUP10 ADD MLOAD PUSH2 0x5DC PUSH1 0x1F DUP10 AND DUP3 PUSH2 0x4EF JUMP JUMPDEST DUP4 SSTORE POP JUMPDEST PUSH1 0x1 PUSH1 0x2 DUP9 MUL ADD DUP9 SSTORE POP POP POP JUMPDEST POP POP POP POP POP POP JUMP JUMPDEST PUSH32 0x6675636B00000000000000000000000000000000000000000000000000000000 PUSH0 DUP3 ADD MSTORE POP JUMP JUMPDEST PUSH0 PUSH2 0x629 PUSH1 0x4 DUP4 PUSH2 0x279 JUMP JUMPDEST SWAP2 POP PUSH2 0x634 DUP3 PUSH2 0x5F5 JUMP JUMPDEST PUSH1 0x20 DUP3 ADD SWAP1 POP SWAP2 SWAP1 POP JUMP JUMPDEST PUSH0 PUSH1 0x20 DUP3 ADD SWAP1 POP DUP2 DUP2 SUB PUSH0 DUP4 ADD MSTORE PUSH2 0x656 DUP2 PUSH2 0x61D JUMP JUMPDEST SWAP1 POP SWAP2 SWAP1 POP JUMP INVALID LOG2 PUSH5 0x6970667358 0x22 SLT KECCAK256 MUL 0xD7 0x2F 0xB6 RETURNDATASIZE 0x23 0x1E 0xEB ADDMOD BLOBHASH SWAP7 SWAP12 SWAP6 BLOBBASEFEE 0xED ISZERO PUSH20 0x47B362442D8A3F5A47F2AE0AC2A1DF64736F6C63 NUMBER STOP ADDMOD BYTE STOP CALLER "
		},
		"gasEstimates": {
			"creation": {
				"codeDepositCost": "336600",
				"executionCost": "372",
				"totalCost": "336972"
			},
			"external": {
				"fuck()": "infinite",
				"fuckActions(uint256)": "infinite",
				"getFuckCount()": "2440"
			}
		},
		"methodIdentifiers": {
			"fuck()": "4d6249d1",
			"fuckActions(uint256)": "a78add2f",
			"getFuckCount()": "6d032a31"
		}
	},
	"abi": [
		{
			"anonymous": false,
			"inputs": [
				{
					"indexed": false,
					"internalType": "string",
					"name": "message",
					"type": "string"
				}
			],
			"name": "FuckMessage",
			"type": "event"
		},
		{
			"inputs": [],
			"name": "fuck",
			"outputs": [],
			"stateMutability": "nonpayable",
			"type": "function"
		},
		{
			"inputs": [
				{
					"internalType": "uint256",
					"name": "",
					"type": "uint256"
				}
			],
			"name": "fuckActions",
			"outputs": [
				{
					"internalType": "string",
					"name": "",
					"type": "string"
				}
			],
			"stateMutability": "view",
			"type": "function"
		},
		{
			"inputs": [],
			"name": "getFuckCount",
			"outputs": [
				{
					"internalType": "uint256",
					"name": "",
					"type": "uint256"
				}
			],
			"stateMutability": "view",
			"type": "function"
		}
	]
}